:020000040000FA
:020000000328D3
:040002000034003492
:0A00060007309F0003138316FF303C
:1000100085000030860083120D280508B1000030ED
:10002000B2003108003AB40034182528B418252845
:1000300034192528B4192528341A2528B41A252856
:10004000341B2528B41B25284028B20A3208B300E7
:1000500000303207B30B2928B00031083006B40055
:1000600034182528B418252834192528B41925282A
:10007000341A2528B41A2528341B2528B41B252812
:0400800032088600BC
:02400E00193F58
:00000001FF
